{
  "contractName": "FlightSuretyData",
  "abi": [
    {
      "constant": true,
      "inputs": [
        {
          "name": "",
          "type": "uint256"
        }
      ],
      "name": "clientAddresses",
      "outputs": [
        {
          "name": "",
          "type": "address"
        }
      ],
      "payable": false,
      "stateMutability": "view",
      "type": "function"
    },
    {
      "inputs": [],
      "payable": false,
      "stateMutability": "nonpayable",
      "type": "constructor"
    },
    {
      "payable": true,
      "stateMutability": "payable",
      "type": "fallback"
    },
    {
      "constant": true,
      "inputs": [],
      "name": "isOperational",
      "outputs": [
        {
          "name": "",
          "type": "bool"
        }
      ],
      "payable": false,
      "stateMutability": "view",
      "type": "function"
    },
    {
      "constant": false,
      "inputs": [
        {
          "name": "mode",
          "type": "bool"
        }
      ],
      "name": "setOperation",
      "outputs": [],
      "payable": false,
      "stateMutability": "nonpayable",
      "type": "function"
    },
    {
      "constant": true,
      "inputs": [
        {
          "name": "airline",
          "type": "address"
        }
      ],
      "name": "isAirlineRegistered",
      "outputs": [
        {
          "name": "",
          "type": "bool"
        }
      ],
      "payable": false,
      "stateMutability": "view",
      "type": "function"
    },
    {
      "constant": true,
      "inputs": [
        {
          "name": "airline",
          "type": "address"
        }
      ],
      "name": "isAirlinePending",
      "outputs": [
        {
          "name": "",
          "type": "bool"
        }
      ],
      "payable": false,
      "stateMutability": "view",
      "type": "function"
    },
    {
      "constant": true,
      "inputs": [],
      "name": "getRegisteredAirlineCounter",
      "outputs": [
        {
          "name": "",
          "type": "uint256"
        }
      ],
      "payable": false,
      "stateMutability": "view",
      "type": "function"
    },
    {
      "constant": true,
      "inputs": [
        {
          "name": "airline",
          "type": "address"
        }
      ],
      "name": "isAirlineFunded",
      "outputs": [
        {
          "name": "",
          "type": "bool"
        }
      ],
      "payable": false,
      "stateMutability": "view",
      "type": "function"
    },
    {
      "constant": true,
      "inputs": [
        {
          "name": "insuredClient",
          "type": "address"
        }
      ],
      "name": "getClientCredit",
      "outputs": [
        {
          "name": "",
          "type": "uint256"
        }
      ],
      "payable": false,
      "stateMutability": "view",
      "type": "function"
    },
    {
      "constant": false,
      "inputs": [
        {
          "name": "airlineName",
          "type": "string"
        },
        {
          "name": "airlineAddress",
          "type": "address"
        }
      ],
      "name": "registerAirline",
      "outputs": [],
      "payable": false,
      "stateMutability": "nonpayable",
      "type": "function"
    },
    {
      "constant": false,
      "inputs": [
        {
          "name": "airlineName",
          "type": "string"
        },
        {
          "name": "airlineAddress",
          "type": "address"
        }
      ],
      "name": "addPendingAirline",
      "outputs": [],
      "payable": false,
      "stateMutability": "nonpayable",
      "type": "function"
    },
    {
      "constant": false,
      "inputs": [
        {
          "name": "airlineAddress",
          "type": "address"
        }
      ],
      "name": "voteForAirline",
      "outputs": [
        {
          "name": "",
          "type": "uint256"
        }
      ],
      "payable": false,
      "stateMutability": "nonpayable",
      "type": "function"
    },
    {
      "constant": false,
      "inputs": [
        {
          "name": "airlineAddress",
          "type": "address"
        },
        {
          "name": "amount",
          "type": "uint256"
        }
      ],
      "name": "fundAirline",
      "outputs": [],
      "payable": true,
      "stateMutability": "payable",
      "type": "function"
    },
    {
      "constant": false,
      "inputs": [
        {
          "name": "flightKey",
          "type": "bytes32"
        },
        {
          "name": "clientAddress",
          "type": "address"
        },
        {
          "name": "insuredAmount",
          "type": "uint256"
        }
      ],
      "name": "buy",
      "outputs": [],
      "payable": true,
      "stateMutability": "payable",
      "type": "function"
    },
    {
      "constant": false,
      "inputs": [
        {
          "name": "flightKey",
          "type": "bytes32"
        }
      ],
      "name": "creditInsurees",
      "outputs": [],
      "payable": false,
      "stateMutability": "nonpayable",
      "type": "function"
    },
    {
      "constant": false,
      "inputs": [
        {
          "name": "insuredClient",
          "type": "address"
        }
      ],
      "name": "pay",
      "outputs": [],
      "payable": true,
      "stateMutability": "payable",
      "type": "function"
    },
    {
      "constant": false,
      "inputs": [
        {
          "name": "appContract",
          "type": "address"
        }
      ],
      "name": "authorizeCaller",
      "outputs": [],
      "payable": false,
      "stateMutability": "nonpayable",
      "type": "function"
    },
    {
      "constant": false,
      "inputs": [],
      "name": "fund",
      "outputs": [],
      "payable": true,
      "stateMutability": "payable",
      "type": "function"
    }
  ],
  "bytecode": "0x60806040523480156200001157600080fd5b50336000806101000a81548173ffffffffffffffffffffffffffffffffffffffff021916908373ffffffffffffffffffffffffffffffffffffffff1602179055506000604051908082528060200260200182016040528015620000835781602001602082028038833980820191505090505b50600390805190602001906200009b929190620000cd565b506001600060146101000a81548160ff02191690831515021790555060006001819055506000600281905550620001a2565b82805482825590600052602060002090810192821562000149579160200282015b82811115620001485782518260006101000a81548173ffffffffffffffffffffffffffffffffffffffff021916908373ffffffffffffffffffffffffffffffffffffffff16021790555091602001919060010190620000ee565b5b5090506200015891906200015c565b5090565b6200019f91905b808211156200019b57600081816101000a81549073ffffffffffffffffffffffffffffffffffffffff02191690555060010162000163565b5090565b90565b611eed80620001b26000396000f3006080604052600436106100f1576000357c0100000000000000000000000000000000000000000000000000000000900463ffffffff168063010c5c97146100fb5780630c11dedd146101565780630e2c41291461018c5780632c388d5d1461021557806351f7442b1461025857806378133ffd146102af5780637bd94af0146102fd57806395fc81ef14610358578063b60d4288146103b3578063ca8818ce146103bd578063cc2f6eba146103ec578063cd905dff1461041d578063d2e2a14e1461044c578063f1987e1114610477578063f1a81e72146104e4578063f53b6d6514610524578063fbfa0c2e1461057f575b6100f96105d6565b005b34801561010757600080fd5b5061013c600480360381019080803573ffffffffffffffffffffffffffffffffffffffff1690602001909291905050506105d8565b604051808215151515815260200191505060405180910390f35b61018a600480360381019080803573ffffffffffffffffffffffffffffffffffffffff169060200190929190505050610673565b005b34801561019857600080fd5b50610213600480360381019080803590602001908201803590602001908080601f0160208091040260200160405190810160405280939291908181526020018383808284378201915050505050509192919290803573ffffffffffffffffffffffffffffffffffffffff169060200190929190505050610b2d565b005b34801561022157600080fd5b50610256600480360381019080803573ffffffffffffffffffffffffffffffffffffffff169060200190929190505050610cfa565b005b34801561026457600080fd5b50610299600480360381019080803573ffffffffffffffffffffffffffffffffffffffff169060200190929190505050610d55565b6040518082815260200191505060405180910390f35b6102fb6004803603810190808035600019169060200190929190803573ffffffffffffffffffffffffffffffffffffffff16906020019092919080359060200190929190505050610da1565b005b34801561030957600080fd5b50610356600480360381019080803590602001908201803590602001919091929391929390803573ffffffffffffffffffffffffffffffffffffffff169060200190929190505050611159565b005b34801561036457600080fd5b50610399600480360381019080803573ffffffffffffffffffffffffffffffffffffffff16906020019092919050505061133e565b604051808215151515815260200191505060405180910390f35b6103bb6105d6565b005b3480156103c957600080fd5b506103ea6004803603810190808035151590602001909291905050506113d9565b005b3480156103f857600080fd5b5061041b60048036038101908080356000191690602001909291905050506114ba565b005b34801561042957600080fd5b5061043261186b565b604051808215151515815260200191505060405180910390f35b34801561045857600080fd5b50610461611881565b6040518082815260200191505060405180910390f35b34801561048357600080fd5b506104a26004803603810190808035906020019092919050505061188b565b604051808273ffffffffffffffffffffffffffffffffffffffff1673ffffffffffffffffffffffffffffffffffffffff16815260200191505060405180910390f35b610522600480360381019080803573ffffffffffffffffffffffffffffffffffffffff169060200190929190803590602001909291905050506118c9565b005b34801561053057600080fd5b50610565600480360381019080803573ffffffffffffffffffffffffffffffffffffffff1690602001909291905050506119e5565b604051808215151515815260200191505060405180910390f35b34801561058b57600080fd5b506105c0600480360381019080803573ffffffffffffffffffffffffffffffffffffffff169060200190929190505050611a3e565b6040518082815260200191505060405180910390f35b565b60008073ffffffffffffffffffffffffffffffffffffffff16600460008473ffffffffffffffffffffffffffffffffffffffff1673ffffffffffffffffffffffffffffffffffffffff16815260200190815260200160002060000160009054906101000a900473ffffffffffffffffffffffffffffffffffffffff1673ffffffffffffffffffffffffffffffffffffffff1614159050919050565b600061067d61186b565b1515610717576040517f08c379a00000000000000000000000000000000000000000000000000000000081526004018080602001828103825260258152602001807f436f6e74726163742069732063757272656e746c79206e6f74206f706572617481526020017f696f6e616c00000000000000000000000000000000000000000000000000000081525060400191505060405180910390fd5b3273ffffffffffffffffffffffffffffffffffffffff168273ffffffffffffffffffffffffffffffffffffffff161415156107ba576040517f08c379a00000000000000000000000000000000000000000000000000000000081526004018080602001828103825260198152602001807f436f6e74726163747320617265206e6f7420616c6c6f7765640000000000000081525060200191505060405180910390fd5b600073ffffffffffffffffffffffffffffffffffffffff16600660008473ffffffffffffffffffffffffffffffffffffffff1673ffffffffffffffffffffffffffffffffffffffff16815260200190815260200160002060000160009054906101000a900473ffffffffffffffffffffffffffffffffffffffff1673ffffffffffffffffffffffffffffffffffffffff16141515156108c1576040517f08c379a000000000000000000000000000000000000000000000000000000000815260040180806020018281038252601f8152602001807f54686520636c69656e7420646f6e2774206861766520696e737572616e63650081525060200191505060405180910390fd5b6000600660008473ffffffffffffffffffffffffffffffffffffffff1673ffffffffffffffffffffffffffffffffffffffff168152602001908152602001600020600101541115156109a1576040517f08c379a00000000000000000000000000000000000000000000000000000000081526004018080602001828103825260238152602001807f5468657265206973206e6f2063726564697420746f206265207769746864726181526020017f776564000000000000000000000000000000000000000000000000000000000081525060400191505060405180910390fd5b600660008373ffffffffffffffffffffffffffffffffffffffff1673ffffffffffffffffffffffffffffffffffffffff168152602001908152602001600020600101549050803073ffffffffffffffffffffffffffffffffffffffff1631111515610a9a576040517f08c379a000000000000000000000000000000000000000000000000000000000815260040180806020018281038252602c8152602001807f54686520636f6e747261637420646f6e2774206861766520656e6f756768206381526020017f726564697420746f20706179000000000000000000000000000000000000000081525060400191505060405180910390fd5b6000600660008473ffffffffffffffffffffffffffffffffffffffff1673ffffffffffffffffffffffffffffffffffffffff168152602001908152602001600020600101819055508173ffffffffffffffffffffffffffffffffffffffff166108fc829081150290604051600060405180830381858888f19350505050158015610b28573d6000803e3d6000fd5b505050565b610b3561186b565b1515610bcf576040517f08c379a00000000000000000000000000000000000000000000000000000000081526004018080602001828103825260258152602001807f436f6e74726163742069732063757272656e746c79206e6f74206f706572617481526020017f696f6e616c00000000000000000000000000000000000000000000000000000081525060400191505060405180910390fd5b6080604051908101604052808273ffffffffffffffffffffffffffffffffffffffff1681526020018381526020016000151581526020016000815250600460008373ffffffffffffffffffffffffffffffffffffffff1673ffffffffffffffffffffffffffffffffffffffff16815260200190815260200160002060008201518160000160006101000a81548173ffffffffffffffffffffffffffffffffffffffff021916908373ffffffffffffffffffffffffffffffffffffffff1602179055506020820151816001019080519060200190610cad929190611dd4565b5060408201518160020160006101000a81548160ff02191690831515021790555060608201518160030155905050610cf060018054611da290919063ffffffff16565b6001819055505050565b6001600760008373ffffffffffffffffffffffffffffffffffffffff1673ffffffffffffffffffffffffffffffffffffffff16815260200190815260200160002060006101000a81548160ff02191690831515021790555050565b6000600660008373ffffffffffffffffffffffffffffffffffffffff1673ffffffffffffffffffffffffffffffffffffffff168152602001908152602001600020600101549050919050565b610da961186b565b1515610e43576040517f08c379a00000000000000000000000000000000000000000000000000000000081526004018080602001828103825260258152602001807f436f6e74726163742069732063757272656e746c79206e6f74206f706572617481526020017f696f6e616c00000000000000000000000000000000000000000000000000000081525060400191505060405180910390fd5b600073ffffffffffffffffffffffffffffffffffffffff16600660008473ffffffffffffffffffffffffffffffffffffffff1673ffffffffffffffffffffffffffffffffffffffff16815260200190815260200160002060000160009054906101000a900473ffffffffffffffffffffffffffffffffffffffff1673ffffffffffffffffffffffffffffffffffffffff16141515610fb3576000600660008473ffffffffffffffffffffffffffffffffffffffff1673ffffffffffffffffffffffffffffffffffffffff1681526020019081526020016000206002016000856000191660001916815260200190815260200160002054141515610fae576040517f08c379a000000000000000000000000000000000000000000000000000000000815260040180806020018281038252601e8152602001807f5468697320666c6967687420697320616c726561647920696e7375726564000081525060200191505060405180910390fd5b6110d9565b60408051908101604052808373ffffffffffffffffffffffffffffffffffffffff1681526020016000815250600660008473ffffffffffffffffffffffffffffffffffffffff1673ffffffffffffffffffffffffffffffffffffffff16815260200190815260200160002060008201518160000160006101000a81548173ffffffffffffffffffffffffffffffffffffffff021916908373ffffffffffffffffffffffffffffffffffffffff1602179055506020820151816001015590505060038290806001815401808255809150509060018203906000526020600020016000909192909190916101000a81548173ffffffffffffffffffffffffffffffffffffffff021916908373ffffffffffffffffffffffffffffffffffffffff160217905550505b80600660008473ffffffffffffffffffffffffffffffffffffffff1673ffffffffffffffffffffffffffffffffffffffff168152602001908152602001600020600201600085600019166000191681526020019081526020016000208190555061114e81600254611da290919063ffffffff16565b600281905550505050565b61116161186b565b15156111fb576040517f08c379a00000000000000000000000000000000000000000000000000000000081526004018080602001828103825260258152602001807f436f6e74726163742069732063757272656e746c79206e6f74206f706572617481526020017f696f6e616c00000000000000000000000000000000000000000000000000000081525060400191505060405180910390fd5b6080604051908101604052808273ffffffffffffffffffffffffffffffffffffffff16815260200184848080601f01602080910402602001604051908101604052809392919081815260200183838082843782019150505050505081526020016000151581526020016001815250600560008373ffffffffffffffffffffffffffffffffffffffff1673ffffffffffffffffffffffffffffffffffffffff16815260200190815260200160002060008201518160000160006101000a81548173ffffffffffffffffffffffffffffffffffffffff021916908373ffffffffffffffffffffffffffffffffffffffff160217905550602082015181600101908051906020019061130b929190611dd4565b5060408201518160020160006101000a81548160ff02191690831515021790555060608201518160030155905050505050565b60008073ffffffffffffffffffffffffffffffffffffffff16600560008473ffffffffffffffffffffffffffffffffffffffff1673ffffffffffffffffffffffffffffffffffffffff16815260200190815260200160002060000160009054906101000a900473ffffffffffffffffffffffffffffffffffffffff1673ffffffffffffffffffffffffffffffffffffffff1614159050919050565b6000809054906101000a900473ffffffffffffffffffffffffffffffffffffffff1673ffffffffffffffffffffffffffffffffffffffff163373ffffffffffffffffffffffffffffffffffffffff1614151561149d576040517f08c379a000000000000000000000000000000000000000000000000000000000815260040180806020018281038252601c8152602001807f43616c6c6572206973206e6f7420636f6e7472616374206f776e65720000000081525060200191505060405180910390fd5b80600060146101000a81548160ff02191690831515021790555050565b60008060006114c761186b565b1515611561576040517f08c379a00000000000000000000000000000000000000000000000000000000081526004018080602001828103825260258152602001807f436f6e74726163742069732063757272656e746c79206e6f74206f706572617481526020017f696f6e616c00000000000000000000000000000000000000000000000000000081525060400191505060405180910390fd5b600092505b6003805490508310156118655760006006600060038681548110151561158857fe5b9060005260206000200160009054906101000a900473ffffffffffffffffffffffffffffffffffffffff1673ffffffffffffffffffffffffffffffffffffffff1673ffffffffffffffffffffffffffffffffffffffff1681526020019081526020016000206002016000866000191660001916815260200190815260200160002054141515611858576006600060038581548110151561162457fe5b9060005260206000200160009054906101000a900473ffffffffffffffffffffffffffffffffffffffff1673ffffffffffffffffffffffffffffffffffffffff1673ffffffffffffffffffffffffffffffffffffffff16815260200190815260200160002060020160008560001916600019168152602001908152602001600020549150600660006003858154811015156116bb57fe5b9060005260206000200160009054906101000a900473ffffffffffffffffffffffffffffffffffffffff1673ffffffffffffffffffffffffffffffffffffffff1673ffffffffffffffffffffffffffffffffffffffff16815260200190815260200160002060010154905060006006600060038681548110151561173b57fe5b9060005260206000200160009054906101000a900473ffffffffffffffffffffffffffffffffffffffff1673ffffffffffffffffffffffffffffffffffffffff1673ffffffffffffffffffffffffffffffffffffffff16815260200190815260200160002060020160008660001916600019168152602001908152602001600020819055506117d4600283611dbe90919063ffffffff16565b82820101600660006003868154811015156117eb57fe5b9060005260206000200160009054906101000a900473ffffffffffffffffffffffffffffffffffffffff1673ffffffffffffffffffffffffffffffffffffffff1673ffffffffffffffffffffffffffffffffffffffff168152602001908152602001600020600101819055505b8280600101935050611566565b50505050565b60008060149054906101000a900460ff16905090565b6000600154905090565b60038181548110151561189a57fe5b906000526020600020016000915054906101000a900473ffffffffffffffffffffffffffffffffffffffff1681565b6118d161186b565b151561196b576040517f08c379a00000000000000000000000000000000000000000000000000000000081526004018080602001828103825260258152602001807f436f6e74726163742069732063757272656e746c79206e6f74206f706572617481526020017f696f6e616c00000000000000000000000000000000000000000000000000000081525060400191505060405180910390fd5b6001600460008473ffffffffffffffffffffffffffffffffffffffff1673ffffffffffffffffffffffffffffffffffffffff16815260200190815260200160002060020160006101000a81548160ff0219169083151502179055506119db81600254611da290919063ffffffff16565b6002819055505050565b6000600460008373ffffffffffffffffffffffffffffffffffffffff1673ffffffffffffffffffffffffffffffffffffffff16815260200190815260200160002060020160009054906101000a900460ff169050919050565b6000611a4861186b565b1515611ae2576040517f08c379a00000000000000000000000000000000000000000000000000000000081526004018080602001828103825260258152602001807f436f6e74726163742069732063757272656e746c79206e6f74206f706572617481526020017f696f6e616c00000000000000000000000000000000000000000000000000000081525060400191505060405180910390fd5b611b386001600560008573ffffffffffffffffffffffffffffffffffffffff1673ffffffffffffffffffffffffffffffffffffffff16815260200190815260200160002060030154611da290919063ffffffff16565b600560008473ffffffffffffffffffffffffffffffffffffffff1673ffffffffffffffffffffffffffffffffffffffff16815260200190815260200160002060030181905550611b946002600154611dbe90919063ffffffff16565b600560008473ffffffffffffffffffffffffffffffffffffffff1673ffffffffffffffffffffffffffffffffffffffff16815260200190815260200160002060030154101515611d5857611cc2600560008473ffffffffffffffffffffffffffffffffffffffff1673ffffffffffffffffffffffffffffffffffffffff1681526020019081526020016000206001018054600181600116156101000203166002900480601f016020809104026020016040519081016040528092919081815260200182805460018160011615610100020316600290048015611cb75780601f10611c8c57610100808354040283529160200191611cb7565b820191906000526020600020905b815481529060010190602001808311611c9a57829003601f168201915b505050505083610b2d565b600560008373ffffffffffffffffffffffffffffffffffffffff1673ffffffffffffffffffffffffffffffffffffffff168152602001908152602001600020600080820160006101000a81549073ffffffffffffffffffffffffffffffffffffffff0219169055600182016000611d399190611e54565b6002820160006101000a81549060ff0219169055600382016000905550505b600560008373ffffffffffffffffffffffffffffffffffffffff1673ffffffffffffffffffffffffffffffffffffffff168152602001908152602001600020600301549050919050565b60008183019050828110151515611db557fe5b80905092915050565b60008183811515611dcb57fe5b04905092915050565b828054600181600116156101000203166002900490600052602060002090601f016020900481019282601f10611e1557805160ff1916838001178555611e43565b82800160010185558215611e43579182015b82811115611e42578251825591602001919060010190611e27565b5b509050611e509190611e9c565b5090565b50805460018160011615610100020316600290046000825580601f10611e7a5750611e99565b601f016020900490600052602060002090810190611e989190611e9c565b5b50565b611ebe91905b80821115611eba576000816000905550600101611ea2565b5090565b905600a165627a7a7230582033a3b4f930c3b6c5c55bfa3e2963e186ac13d50f07806c65dab57f6c10a94edf0029",
  "source": "// SPDX-License-Identifier: MIT\r\npragma solidity ^0.4.25;\r\n\r\nimport \"../node_modules/openzeppelin-solidity/contracts/math/SafeMath.sol\";\r\n\r\ncontract FlightSuretyData {\r\n    using SafeMath for uint256;\r\n\r\n    /********************************************************************************************/\r\n    /*                                       DATA VARIABLES                                     */\r\n    /********************************************************************************************/\r\n\r\n    address private contractOwner;\r\n    bool private operational;\r\n    uint256 registeredAirlineCounter;\r\n    uint256 totalFunds;\r\n    address[] public clientAddresses;\r\n\r\n\r\n    struct Client {\r\n        address clientAddress;\r\n        uint256 credit;\r\n        mapping (bytes32 => uint256) insuredFlights;\r\n    }\r\n\r\n    struct Airline {\r\n        address airlineAddress;\r\n        string airlineName;\r\n        bool isFunded;\r\n        uint voteCounter;\r\n    }\r\n\r\n    mapping(address => Airline) private registeredAirlines;\r\n    mapping(address => Airline) private pendingAirlines;\r\n    mapping(address => Client) private clients;\r\n    mapping(address => bool) private authorizedAppContracts;\r\n    \r\n    \r\n    /********************************************************************************************/\r\n    /*                                       CONSTRUCTOR                                        */\r\n    /********************************************************************************************/\r\n\r\n    constructor() public {\r\n        contractOwner = msg.sender;\r\n        clientAddresses = new address[](0);\r\n        operational = true;\r\n        registeredAirlineCounter = 0;\r\n        totalFunds = 0;\r\n    }\r\n\r\n    \r\n    /********************************************************************************************/\r\n    /*                                       FUNCTION MODIFIERS                                 */\r\n    /********************************************************************************************/\r\n\r\n    modifier requireIsOperational() \r\n    {\r\n        require(isOperational(), \"Contract is currently not operational\");\r\n        _;\r\n    }\r\n\r\n    modifier requireContractOwner()\r\n    {\r\n        require(msg.sender == contractOwner, \"Caller is not contract owner\");\r\n        _;\r\n    }\r\n\r\n    /********************************************************************************************/\r\n    /*                                       UTILITY FUNCTIONS                                  */\r\n    /********************************************************************************************/\r\n\r\n    function isOperational() public view returns(bool) {\r\n        return operational;\r\n    }\r\n\r\n        function setOperation(bool mode) external requireContractOwner {\r\n        operational = mode;\r\n    }     \r\n\r\n    function isAirlineRegistered(address airline) external view returns(bool) {\r\n        return registeredAirlines[airline].airlineAddress != address(0);\r\n    }\r\n\r\n    function isAirlinePending(address airline) external view returns(bool) {\r\n        return pendingAirlines[airline].airlineAddress != address(0);\r\n    }\r\n\r\n    function getRegisteredAirlineCounter() external view returns(uint256) {\r\n        return registeredAirlineCounter;\r\n    }\r\n\r\n    function isAirlineFunded(address airline) external view returns(bool) {\r\n        return registeredAirlines[airline].isFunded;\r\n    }\r\n\r\n    function getClientCredit(address insuredClient) external view returns(uint256) {\r\n        return clients[insuredClient].credit;\r\n    }\r\n\r\n    /********************************************************************************************/\r\n    /*                                     SMART CONTRACT FUNCTIONS                             */\r\n    /********************************************************************************************/\r\n\r\n    function registerAirline(string airlineName, address airlineAddress) public requireIsOperational {\r\n        registeredAirlines[airlineAddress] = Airline({\r\n            airlineName: airlineName,\r\n            airlineAddress: airlineAddress,\r\n            isFunded: false,\r\n            voteCounter: 0\r\n        });\r\n\r\n        registeredAirlineCounter = registeredAirlineCounter.add(1);\r\n    }\r\n\r\n    function addPendingAirline(string airlineName, address airlineAddress) external requireIsOperational {   \r\n        pendingAirlines[airlineAddress] = Airline({\r\n            airlineName: airlineName,\r\n            airlineAddress: airlineAddress,\r\n            isFunded: false,\r\n            voteCounter: 1\r\n        });\r\n    }\r\n\r\n    function voteForAirline(address airlineAddress) external requireIsOperational returns (uint256) {\r\n        pendingAirlines[airlineAddress].voteCounter = pendingAirlines[airlineAddress].voteCounter.add(1);\r\n        if (pendingAirlines[airlineAddress].voteCounter >= registeredAirlineCounter.div((2))) {\r\n            registerAirline(pendingAirlines[airlineAddress].airlineName, airlineAddress);\r\n            delete pendingAirlines[airlineAddress];\r\n        }\r\n        return pendingAirlines[airlineAddress].voteCounter;\r\n    }\r\n\r\n    function fundAirline(address airlineAddress, uint256 amount) external payable requireIsOperational {\r\n        registeredAirlines[airlineAddress].isFunded = true;\r\n        totalFunds = totalFunds.add(amount);\r\n    }\r\n\r\n    function buy(bytes32 flightKey, address clientAddress, uint256 insuredAmount) external payable requireIsOperational {\r\n        if (clients[clientAddress].clientAddress != address(0)) { \r\n            require(clients[clientAddress].insuredFlights[flightKey] == 0, \"This flight is already insured\");\r\n            \r\n        } else { \r\n            clients[clientAddress] = Client({\r\n                clientAddress: clientAddress,\r\n                credit: 0\r\n            });\r\n            clientAddresses.push(clientAddress);\r\n        }\r\n        clients[clientAddress].insuredFlights[flightKey] = insuredAmount;\r\n        totalFunds = totalFunds.add(insuredAmount); \r\n    }\r\n\r\n    function creditInsurees(bytes32 flightKey) external requireIsOperational {\r\n        for (uint256 i = 0; i < clientAddresses.length; i++) {\r\n            if(clients[clientAddresses[i]].insuredFlights[flightKey] != 0) { // Insured flights\r\n                uint256 payedPrice = clients[clientAddresses[i]].insuredFlights[flightKey];\r\n                uint256 savedCredit = clients[clientAddresses[i]].credit;\r\n                clients[clientAddresses[i]].insuredFlights[flightKey] = 0;\r\n                clients[clientAddresses[i]].credit = savedCredit + payedPrice + payedPrice.div(2); // 1.5X the amount they paid\r\n            }\r\n        }\r\n    }\r\n\r\n    function pay(address insuredClient) external payable requireIsOperational {\r\n        require(insuredClient == tx.origin, \"Contracts are not allowed\");\r\n        require(clients[insuredClient].clientAddress != address(0), \"The client don't have insurance\");\r\n        require(clients[insuredClient].credit > 0, \"There is no credit to be withdrawed\");\r\n        uint256 credit = clients[insuredClient].credit;\r\n        require(address(this).balance > credit, \"The contract don't have enough credit to pay\");\r\n        clients[insuredClient].credit = 0;\r\n        insuredClient.transfer(credit);\r\n    }\r\n\r\n    function authorizeCaller (address appContract) public {\r\n        authorizedAppContracts[appContract] = true;\r\n    }\r\n \r\n    function fund() public payable {\r\n    }\r\n\r\n    function getFlightKey(address airline, string flight, uint256 timestamp) pure internal returns(bytes32) {\r\n        return keccak256(abi.encodePacked(airline, flight, timestamp));\r\n    }\r\n\r\n    function() external payable {\r\n        fund();\r\n    }\r\n\r\n}\r\n\r\n",
  "sourcePath": "C:\\Users\\gerso\\Desktop\\Curso Blockchain\\FlightSurety_V2\\contracts\\FlightSuretyData.sol",
  "compiler": {
    "name": "solc",
    "version": "0.4.26+commit.4563c3fc.Emscripten.clang"
  },
  "schemaVersion": "3.4.11",
  "updatedAt": "2023-02-27T21:35:49.734Z",
  "networkType": "ethereum",
  "devdoc": {
    "methods": {}
  },
  "userdoc": {
    "methods": {
      "isOperational()": {
        "notice": "*****************************************************************************************"
      },
      "registerAirline(string,address)": {
        "notice": "*****************************************************************************************"
      }
    }
  }
}